{
  "contractName": "Lottery",
  "abi": [
    {
      "inputs": [
        {
          "internalType": "address",
          "name": "_ethUsdPriceFeed",
          "type": "address"
        },
        {
          "internalType": "address",
          "name": "_vrfCoordinator",
          "type": "address"
        },
        {
          "internalType": "address",
          "name": "_link",
          "type": "address"
        },
        {
          "internalType": "bytes32",
          "name": "_keyHash",
          "type": "bytes32"
        }
      ],
      "stateMutability": "nonpayable",
      "type": "constructor"
    },
    {
      "anonymous": false,
      "inputs": [
        {
          "indexed": true,
          "internalType": "address",
          "name": "previousOwner",
          "type": "address"
        },
        {
          "indexed": true,
          "internalType": "address",
          "name": "newOwner",
          "type": "address"
        }
      ],
      "name": "OwnershipTransferred",
      "type": "event"
    },
    {
      "anonymous": false,
      "inputs": [
        {
          "indexed": false,
          "internalType": "bytes32",
          "name": "requestId",
          "type": "bytes32"
        }
      ],
      "name": "RequestedRandomness",
      "type": "event"
    },
    {
      "inputs": [],
      "name": "keyHash",
      "outputs": [
        {
          "internalType": "bytes32",
          "name": "",
          "type": "bytes32"
        }
      ],
      "stateMutability": "view",
      "type": "function"
    },
    {
      "inputs": [],
      "name": "lotteryState",
      "outputs": [
        {
          "internalType": "enum Lottery.LOTTERY_STATE",
          "name": "",
          "type": "uint8"
        }
      ],
      "stateMutability": "view",
      "type": "function"
    },
    {
      "inputs": [],
      "name": "owner",
      "outputs": [
        {
          "internalType": "address",
          "name": "",
          "type": "address"
        }
      ],
      "stateMutability": "view",
      "type": "function"
    },
    {
      "inputs": [
        {
          "internalType": "uint256",
          "name": "",
          "type": "uint256"
        }
      ],
      "name": "players",
      "outputs": [
        {
          "internalType": "address payable",
          "name": "",
          "type": "address"
        }
      ],
      "stateMutability": "view",
      "type": "function"
    },
    {
      "inputs": [],
      "name": "randomness",
      "outputs": [
        {
          "internalType": "uint256",
          "name": "",
          "type": "uint256"
        }
      ],
      "stateMutability": "view",
      "type": "function"
    },
    {
      "inputs": [
        {
          "internalType": "bytes32",
          "name": "requestId",
          "type": "bytes32"
        },
        {
          "internalType": "uint256",
          "name": "randomness",
          "type": "uint256"
        }
      ],
      "name": "rawFulfillRandomness",
      "outputs": [],
      "stateMutability": "nonpayable",
      "type": "function"
    },
    {
      "inputs": [],
      "name": "recentWinner",
      "outputs": [
        {
          "internalType": "address",
          "name": "",
          "type": "address"
        }
      ],
      "stateMutability": "view",
      "type": "function"
    },
    {
      "inputs": [],
      "name": "renounceOwnership",
      "outputs": [],
      "stateMutability": "nonpayable",
      "type": "function"
    },
    {
      "inputs": [
        {
          "internalType": "address",
          "name": "newOwner",
          "type": "address"
        }
      ],
      "name": "transferOwnership",
      "outputs": [],
      "stateMutability": "nonpayable",
      "type": "function"
    },
    {
      "inputs": [],
      "name": "usdEntryFee",
      "outputs": [
        {
          "internalType": "uint256",
          "name": "",
          "type": "uint256"
        }
      ],
      "stateMutability": "view",
      "type": "function"
    },
    {
      "inputs": [],
      "name": "depositEth",
      "outputs": [],
      "stateMutability": "payable",
      "type": "function"
    },
    {
      "inputs": [],
      "name": "enter",
      "outputs": [],
      "stateMutability": "payable",
      "type": "function"
    },
    {
      "inputs": [],
      "name": "getEntranceFee",
      "outputs": [
        {
          "internalType": "uint256",
          "name": "",
          "type": "uint256"
        }
      ],
      "stateMutability": "view",
      "type": "function"
    },
    {
      "inputs": [],
      "name": "getLatestEthUsdPrice",
      "outputs": [
        {
          "internalType": "uint256",
          "name": "",
          "type": "uint256"
        }
      ],
      "stateMutability": "view",
      "type": "function"
    },
    {
      "inputs": [],
      "name": "startLottery",
      "outputs": [],
      "stateMutability": "nonpayable",
      "type": "function"
    },
    {
      "inputs": [
        {
          "internalType": "uint256",
          "name": "userProvidedSeed",
          "type": "uint256"
        }
      ],
      "name": "endLottery",
      "outputs": [],
      "stateMutability": "nonpayable",
      "type": "function"
    }
  ],
  "bytecode": "0x60c060405234801561001057600080fd5b5060405161185c38038061185c8339818101604052608081101561003357600080fd5b810190808051906020019092919080519060200190929190805190602001909291908051906020019092919050505082828173ffffffffffffffffffffffffffffffffffffffff1660a08173ffffffffffffffffffffffffffffffffffffffff1660601b815250508073ffffffffffffffffffffffffffffffffffffffff1660808173ffffffffffffffffffffffffffffffffffffffff1660601b8152505050506100f06100e561017b60201b60201c565b61018360201b60201c565b83600260006101000a81548173ffffffffffffffffffffffffffffffffffffffff021916908373ffffffffffffffffffffffffffffffffffffffff160217905550603260038190555060018060146101000a81548160ff0219169083600281111561015757fe5b021790555067016345785d8a00006007819055508060088190555050505050610249565b600033905090565b6000600160009054906101000a900473ffffffffffffffffffffffffffffffffffffffff16905081600160006101000a81548173ffffffffffffffffffffffffffffffffffffffff021916908373ffffffffffffffffffffffffffffffffffffffff1602179055508173ffffffffffffffffffffffffffffffffffffffff168173ffffffffffffffffffffffffffffffffffffffff167f8be0079c531659141344cd1fd0a4f28419497f9722a3daafe3b4186f6b6457e060405160405180910390a35050565b60805160601c60a05160601c6115e5610277600039806109a252806111065250806110ca52506115e56000f3fe6080604052600436106100f35760003560e01c80636939864b1161008a57806394985ddd1161005957806394985ddd14610329578063e97dcb621461036e578063f2fde38b14610378578063f71d96cb146103c9576100f3565b80636939864b14610257578063715018a61461029057806388ab139a146102a75780638da5cb5b146102d2576100f3565b80633739e769116100c65780633739e76914610190578063439370b1146101cb5780634f8c70cf146101d557806361728f391461022c576100f3565b806309bc33a7146100f8578063160344e214610123578063302145991461013a5780633601318914610165575b600080fd5b34801561010457600080fd5b5061010d610444565b6040518082815260200191505060405180910390f35b34801561012f57600080fd5b5061013861047f565b005b34801561014657600080fd5b5061014f6105da565b6040518082815260200191505060405180910390f35b34801561017157600080fd5b5061017a6106c3565b6040518082815260200191505060405180910390f35b34801561019c57600080fd5b506101c9600480360360208110156101b357600080fd5b81019080803590602001909291905050506106c9565b005b6101d3610827565b005b3480156101e157600080fd5b506101ea610876565b604051808273ffffffffffffffffffffffffffffffffffffffff1673ffffffffffffffffffffffffffffffffffffffff16815260200191505060405180910390f35b34801561023857600080fd5b5061024161089c565b6040518082815260200191505060405180910390f35b34801561026357600080fd5b5061026c6108a2565b6040518082600281111561027c57fe5b60ff16815260200191505060405180910390f35b34801561029c57600080fd5b506102a56108b5565b005b3480156102b357600080fd5b506102bc610970565b6040518082815260200191505060405180910390f35b3480156102de57600080fd5b506102e7610976565b604051808273ffffffffffffffffffffffffffffffffffffffff1673ffffffffffffffffffffffffffffffffffffffff16815260200191505060405180910390f35b34801561033557600080fd5b5061036c6004803603604081101561034c57600080fd5b8101908080359060200190929190803590602001909291905050506109a0565b005b610376610a6f565b005b34801561038457600080fd5b506103c76004803603602081101561039b57600080fd5b81019080803573ffffffffffffffffffffffffffffffffffffffff169060200190929190505050610bc2565b005b3480156103d557600080fd5b50610402600480360360208110156103ec57600080fd5b8101908080359060200190929190505050610d03565b604051808273ffffffffffffffffffffffffffffffffffffffff1673ffffffffffffffffffffffffffffffffffffffff16815260200191505060405180910390f35b600080670de0b6b3a76400009050600061045c6105da565b905060006305f5e1006003540282848161047257fe5b0402905080935050505090565b610487610d3f565b73ffffffffffffffffffffffffffffffffffffffff166104a5610976565b73ffffffffffffffffffffffffffffffffffffffff161461052e576040517f08c379a00000000000000000000000000000000000000000000000000000000081526004018080602001828103825260208152602001807f4f776e61626c653a2063616c6c6572206973206e6f7420746865206f776e657281525060200191505060405180910390fd5b6001600281111561053b57fe5b600160149054906101000a900460ff16600281111561055657fe5b146105ac576040517f08c379a000000000000000000000000000000000000000000000000000000000815260040180806020018281038252603581526020018061157b6035913960400191505060405180910390fd5b6000600160146101000a81548160ff021916908360028111156105cb57fe5b02179055506000600681905550565b600080600080600080600260009054906101000a900473ffffffffffffffffffffffffffffffffffffffff1673ffffffffffffffffffffffffffffffffffffffff1663feaf968c6040518163ffffffff1660e01b815260040160a06040518083038186803b15801561064b57600080fd5b505afa15801561065f573d6000803e3d6000fd5b505050506040513d60a081101561067557600080fd5b81019080805190602001909291908051906020019092919080519060200190929190805190602001909291908051906020019092919050505094509450945094509450839550505050505090565b60065481565b6106d1610d3f565b73ffffffffffffffffffffffffffffffffffffffff166106ef610976565b73ffffffffffffffffffffffffffffffffffffffff1614610778576040517f08c379a00000000000000000000000000000000000000000000000000000000081526004018080602001828103825260208152602001807f4f776e61626c653a2063616c6c6572206973206e6f7420746865206f776e657281525060200191505060405180910390fd5b6000600281111561078557fe5b600160149054906101000a900460ff1660028111156107a057fe5b146107f6576040517f08c379a00000000000000000000000000000000000000000000000000000000081526004018080602001828103825260358152602001806114db6035913960400191505060405180910390fd5b6002600160146101000a81548160ff0219169083600281111561081557fe5b021790555061082381610d47565b5050565b34600960003373ffffffffffffffffffffffffffffffffffffffff1673ffffffffffffffffffffffffffffffffffffffff16815260200190815260200160002060008282540192505081905550565b600560009054906101000a900473ffffffffffffffffffffffffffffffffffffffff1681565b60085481565b600160149054906101000a900460ff1681565b6108bd610d3f565b73ffffffffffffffffffffffffffffffffffffffff166108db610976565b73ffffffffffffffffffffffffffffffffffffffff1614610964576040517f08c379a00000000000000000000000000000000000000000000000000000000081526004018080602001828103825260208152602001807f4f776e61626c653a2063616c6c6572206973206e6f7420746865206f776e657281525060200191505060405180910390fd5b61096e6000610e15565b565b60035481565b6000600160009054906101000a900473ffffffffffffffffffffffffffffffffffffffff16905090565b7f000000000000000000000000000000000000000000000000000000000000000073ffffffffffffffffffffffffffffffffffffffff163373ffffffffffffffffffffffffffffffffffffffff1614610a61576040517f08c379a000000000000000000000000000000000000000000000000000000000815260040180806020018281038252601f8152602001807f4f6e6c7920565246436f6f7264696e61746f722063616e2066756c66696c6c0081525060200191505060405180910390fd5b610a6b8282610edb565b5050565b610a77610444565b600960003373ffffffffffffffffffffffffffffffffffffffff1673ffffffffffffffffffffffffffffffffffffffff168152602001908152602001600020541015610b2b576040517f08c379a000000000000000000000000000000000000000000000000000000000815260040180806020018281038252601c8152602001807f4e6f7420656e6f7567682062616c616e636520746f20656e746572210000000081525060200191505060405180910390fd5b60006002811115610b3857fe5b600160149054906101000a900460ff166002811115610b5357fe5b14610b5d57600080fd5b6004339080600181540180825580915050600190039060005260206000200160009091909190916101000a81548173ffffffffffffffffffffffffffffffffffffffff021916908373ffffffffffffffffffffffffffffffffffffffff160217905550565b610bca610d3f565b73ffffffffffffffffffffffffffffffffffffffff16610be8610976565b73ffffffffffffffffffffffffffffffffffffffff1614610c71576040517f08c379a00000000000000000000000000000000000000000000000000000000081526004018080602001828103825260208152602001807f4f776e61626c653a2063616c6c6572206973206e6f7420746865206f776e657281525060200191505060405180910390fd5b600073ffffffffffffffffffffffffffffffffffffffff168173ffffffffffffffffffffffffffffffffffffffff161415610cf7576040517f08c379a00000000000000000000000000000000000000000000000000000000081526004018080602001828103825260268152602001806115106026913960400191505060405180910390fd5b610d0081610e15565b50565b60048181548110610d1057fe5b906000526020600020016000915054906101000a900473ffffffffffffffffffffffffffffffffffffffff1681565b600033905090565b6000600280811115610d5557fe5b600160149054906101000a900460ff166002811115610d7057fe5b14610dc6576040517f08c379a00000000000000000000000000000000000000000000000000000000081526004018080602001828103825260228152602001806115366022913960400191505060405180910390fd5b6000610dd66008546007546110c6565b90507fe5f5b44d72d4143c278eb745c4acc0695c4a5bc616be5beecf46abe29661780e816040518082815260200191505060405180910390a150919050565b6000600160009054906101000a900473ffffffffffffffffffffffffffffffffffffffff16905081600160006101000a81548173ffffffffffffffffffffffffffffffffffffffff021916908373ffffffffffffffffffffffffffffffffffffffff1602179055508173ffffffffffffffffffffffffffffffffffffffff168173ffffffffffffffffffffffffffffffffffffffff167f8be0079c531659141344cd1fd0a4f28419497f9722a3daafe3b4186f6b6457e060405160405180910390a35050565b60008111610f34576040517f08c379a00000000000000000000000000000000000000000000000000000000081526004018080602001828103825260238152602001806115586023913960400191505060405180910390fd5b60006004805490508281610f4457fe5b06905060048181548110610f5457fe5b9060005260206000200160009054906101000a900473ffffffffffffffffffffffffffffffffffffffff1673ffffffffffffffffffffffffffffffffffffffff166108fc479081150290604051600060405180830381858888f19350505050158015610fc4573d6000803e3d6000fd5b50600067ffffffffffffffff81118015610fdd57600080fd5b5060405190808252806020026020018201604052801561100c5781602001602082028036833780820191505090505b506004908051906020019061102292919061140d565b506004818154811061103057fe5b9060005260206000200160009054906101000a900473ffffffffffffffffffffffffffffffffffffffff16600560006101000a81548173ffffffffffffffffffffffffffffffffffffffff021916908373ffffffffffffffffffffffffffffffffffffffff16021790555060018060146101000a81548160ff021916908360028111156110b957fe5b0217905550819150505050565b60007f000000000000000000000000000000000000000000000000000000000000000073ffffffffffffffffffffffffffffffffffffffff16634000aea07f00000000000000000000000000000000000000000000000000000000000000008486600060405160200180838152602001828152602001925050506040516020818303038152906040526040518463ffffffff1660e01b8152600401808473ffffffffffffffffffffffffffffffffffffffff1673ffffffffffffffffffffffffffffffffffffffff16815260200183815260200180602001828103825283818151815260200191508051906020019080838360005b838110156111d65780820151818401526020810190506111bb565b50505050905090810190601f1680156112035780820380516001836020036101000a031916815260200191505b50945050505050602060405180830381600087803b15801561122457600080fd5b505af1158015611238573d6000803e3d6000fd5b505050506040513d602081101561124e57600080fd5b810190808051906020019092919050505050600061128184600030600080898152602001908152602001600020546112d2565b90506112a960016000808781526020019081526020016000205461134c90919063ffffffff16565b600080868152602001908152602001600020819055506112c984826113d4565b91505092915050565b600084848484604051602001808581526020018481526020018373ffffffffffffffffffffffffffffffffffffffff1673ffffffffffffffffffffffffffffffffffffffff1681526020018281526020019450505050506040516020818303038152906040528051906020012060001c9050949350505050565b6000808284019050838110156113ca576040517f08c379a000000000000000000000000000000000000000000000000000000000815260040180806020018281038252601b8152602001807f536166654d6174683a206164646974696f6e206f766572666c6f77000000000081525060200191505060405180910390fd5b8091505092915050565b60008282604051602001808381526020018281526020019250505060405160208183030381529060405280519060200120905092915050565b828054828255906000526020600020908101928215611486579160200282015b828111156114855782518260006101000a81548173ffffffffffffffffffffffffffffffffffffffff021916908373ffffffffffffffffffffffffffffffffffffffff1602179055509160200191906001019061142d565b5b5090506114939190611497565b5090565b6114d791905b808211156114d357600081816101000a81549073ffffffffffffffffffffffffffffffffffffffff02191690555060010161149d565b5090565b9056fe4c6f74746572792068617320746f206265206f70656e20696e206f7264657220746f2063616c63756c61746520612077696e6e65724f776e61626c653a206e6577206f776e657220697320746865207a65726f20616464726573736e6565647320746f20626520636c6163756c6174696e67207468652077696e6e657272616e646f6d206e756d626572206d75737420626520686967686572207468616e203043616e6e6f742073746172742061206e6577204c6f747465727920756e74696c2063757272656e74206f6e652066696e6973686564a264697066735822122052d757fe3e99f2204b447a42d5b6a381816c7b98c1521db68617ca1443d189dd64736f6c63430006060033",
  "immutableReferences": {
    "395": [
      {
        "length": 32,
        "start": 4298
      }
    ],
    "397": [
      {
        "length": 32,
        "start": 2466
      },
      {
        "length": 32,
        "start": 4358
      }
    ]
  },
  "source": "//SPDX Licence-Identifier: MIT;\r\npragma solidity ^0.6.6;\r\n\r\nimport \"@chainlink/contracts/src/v0.6/interfaces/AggregatorV3Interface.sol\";\r\nimport \"@chainlink/contracts/src/v0.6/vendor/SafeMathChainlink.sol\";\r\nimport \"@openzeppelin/contracts/access/Ownable.sol\";\r\nimport \"@chainlink/contracts/src/v0.6/VRFConsumerBase.sol\";\r\n\r\ncontract Lottery is VRFConsumerBase, Ownable {\r\n\r\n  using SafeMathChainlink for uint256;\r\n\r\n  enum LOTTERY_STATE {OPEN, CLOSED, CALCULATING_WINNER}\r\n  LOTTERY_STATE public lotteryState;\r\n  AggregatorV3Interface internal ethUsdPriceFeed;\r\n  uint256 public usdEntryFee;\r\n  address payable[] public players;\r\n  address public recentWinner;\r\n  uint256 public randomness;\r\n  uint256 fee;\r\n  bytes32 public keyHash; \r\n\r\n  event RequestedRandomness(bytes32 requestId);\r\n\r\n  mapping(address => uint256) ethBalance;\r\n\r\n  constructor(address _ethUsdPriceFeed, address _vrfCoordinator, address _link, bytes32 _keyHash) public \r\n  VRFConsumerBase(\r\n      _vrfCoordinator,\r\n      _link\r\n\r\n    ){\r\n\r\n    ethUsdPriceFeed = AggregatorV3Interface(_ethUsdPriceFeed);\r\n    usdEntryFee = 50;\r\n    lotteryState = LOTTERY_STATE.CLOSED;\r\n    fee = 100000000000000000; //0.1 LINK\r\n    keyHash = _keyHash;\r\n  }\r\n  function depositEth() public payable{\r\n    ethBalance[msg.sender] += msg.value;\r\n  }\r\n\r\n  function enter() public payable {\r\n    require(ethBalance[msg.sender] >= getEntranceFee(), \"Not enough balance to enter!\");\r\n    require(lotteryState == LOTTERY_STATE.OPEN);\r\n    players.push(msg.sender);\r\n  }\r\n\r\n  function getEntranceFee() public view returns(uint256){\r\n    uint256 precision = 1 * 10 **18; // This is 1 ETH in wei\r\n    uint256 price = getLatestEthUsdPrice(); // This is the current USD value for 1 ETH\r\n    uint256 costToEnter = (precision / price ) * (usdEntryFee * 100000000); // ( 1ETH in Wei / dollar in ETH ) * (50 * 100000000)\r\n    return costToEnter;\r\n\r\n  }\r\n \r\n  function getLatestEthUsdPrice() public view returns(uint256){\r\n            (\r\n            uint80 roundID,\r\n            int price,\r\n            uint startedAt,\r\n            uint timeStamp,\r\n            uint80 answeredInRound \r\n        ) = ethUsdPriceFeed.latestRoundData();\r\n        return uint256(price);\r\n\r\n  }\r\n\r\n  function startLottery() public onlyOwner {\r\n    require(lotteryState == LOTTERY_STATE.CLOSED, \"Cannot start a new Lottery until current one finished\");\r\n    lotteryState = LOTTERY_STATE.OPEN;\r\n    randomness = 0;\r\n  }\r\n\r\n\r\n  function endLottery(uint256 userProvidedSeed) public onlyOwner{\r\n    require(lotteryState == LOTTERY_STATE.OPEN, \"Lottery has to be open in order to calculate a winner\");\r\n    lotteryState = LOTTERY_STATE.CALCULATING_WINNER;\r\n    pickWinner(userProvidedSeed);\r\n\r\n  }\r\n\r\n\r\n\r\n  function pickWinner(uint256 userProvidedSeed) private returns(bytes32) {\r\n    require(lotteryState == LOTTERY_STATE.CALCULATING_WINNER, \"needs to be claculating the winner\");\r\n    bytes32 requestId = requestRandomness(keyHash, fee);\r\n    emit RequestedRandomness(requestId);\r\n\r\n  } \r\n  function fulfillRandomness(bytes32 requestId, uint256 randomness) override internal {\r\n        require(randomness > 0, \"random number must be higher than 0\");\r\n        uint256 index = randomness % players.length; // This is how we set the random number generator to do not make that much of a number, just how many players we have\r\n        players[index].transfer(address(this).balance); // Send the winner all the Ethereum address to this smart contract\r\n        players = new address payable[](0);\r\n        recentWinner = players[index];\r\n        lotteryState = LOTTERY_STATE.CLOSED;\r\n        randomness = randomness;\r\n  }\r\n\r\n}",
  "sourcePath": "C:/Users/Riki/Desktop/Solidity/Chainlink/contracts/Lottery.sol",
  "compiler": {
    "name": "solc",
    "version": "0.6.6+commit.6c089d02.Emscripten.clang"
  },
  "schemaVersion": "3.3.4",
  "updatedAt": "2022-02-26T18:47:47.368Z",
  "networkType": "ethereum",
  "devdoc": {
    "methods": {
      "owner()": {
        "details": "Returns the address of the current owner."
      },
      "renounceOwnership()": {
        "details": "Leaves the contract without owner. It will not be possible to call `onlyOwner` functions anymore. Can only be called by the current owner.     * NOTE: Renouncing ownership will leave the contract without an owner, thereby removing any functionality that is only available to the owner."
      },
      "transferOwnership(address)": {
        "details": "Transfers ownership of the contract to a new account (`newOwner`). Can only be called by the current owner."
      }
    }
  },
  "userdoc": {
    "methods": {}
  }
}